{
  "contractName": "Casino",
  "abi": [
    {
      "constant": false,
      "inputs": [],
      "name": "generateNumberWinner",
      "outputs": [
        {
          "name": "",
          "type": "uint256"
        }
      ],
      "payable": true,
      "stateMutability": "view",
      "type": "function"
    },
    {
      "constant": true,
      "inputs": [],
      "name": "LIMIT_AMOUNT_BETS",
      "outputs": [
        {
          "name": "",
          "type": "uint256"
        }
      ],
      "payable": false,
      "stateMutability": "view",
      "type": "function"
    },
    {
      "constant": false,
      "inputs": [
        {
          "name": "myid",
          "type": "bytes32"
        },
        {
          "name": "result",
          "type": "string"
        }
      ],
      "name": "__callback",
      "outputs": [
        {
          "name": "",
          "type": "uint256"
        }
      ],
      "payable": false,
      "stateMutability": "view",
      "type": "function"
    },
    {
      "constant": true,
      "inputs": [],
      "name": "numberOfBets",
      "outputs": [
        {
          "name": "",
          "type": "uint256"
        }
      ],
      "payable": false,
      "stateMutability": "view",
      "type": "function"
    },
    {
      "constant": false,
      "inputs": [
        {
          "name": "_queryId",
          "type": "bytes32"
        },
        {
          "name": "_result",
          "type": "string"
        },
        {
          "name": "_proof",
          "type": "bytes"
        }
      ],
      "name": "__callback",
      "outputs": [
        {
          "name": "",
          "type": "uint256"
        }
      ],
      "payable": false,
      "stateMutability": "view",
      "type": "function"
    },
    {
      "constant": false,
      "inputs": [
        {
          "name": "player",
          "type": "address"
        }
      ],
      "name": "checkPlayerExists",
      "outputs": [
        {
          "name": "",
          "type": "bool"
        }
      ],
      "payable": false,
      "stateMutability": "view",
      "type": "function"
    },
    {
      "constant": false,
      "inputs": [
        {
          "name": "numberToBet",
          "type": "uint256"
        }
      ],
      "name": "bet",
      "outputs": [
        {
          "name": "",
          "type": "uint256"
        }
      ],
      "payable": true,
      "stateMutability": "view",
      "type": "function"
    },
    {
      "inputs": [
        {
          "name": "_minimumBet",
          "type": "uint256"
        },
        {
          "name": "_maxAmountOfBets",
          "type": "uint256"
        }
      ],
      "payable": false,
      "stateMutability": "nonpayable",
      "type": "function",
      "constant": false,
      "name": "distributePrizes",
      "outputs": []
    },
    {
      "constant": true,
      "inputs": [
        {
          "name": "player",
          "type": "address"
        }
      ],
      "name": "numberWinner",
      "outputs": [
        {
          "name": "",
          "type": "uint256"
        }
      ],
      "payable": false,
      "stateMutability": "nonpayable",
      "type": "function"
    },
    {
      "constant": true,
      "inputs": [
        {
          "name": "numberToBet",
          "type": "uint256"
        }
      ],
      "name": "minimumBet",
      "outputs": [
        {
          "name": "",
          "type": "uint256"
        }
      ],
      "payable": false,
      "stateMutability": "payable",
      "type": "function"
    },
    {
      "constant": true,
      "inputs": [],
      "name": "maxAmountOfBets",
      "outputs": [
        {
          "name": "",
          "type": "uint256"
        }
      ],
      "payable": false,
      "stateMutability": "payable",
      "type": "function"
    },
    {
      "constant": true,
      "inputs": [
        {
          "name": "",
          "type": "uint256"
        },
        {
          "name": "result",
          "type": "string"
        }
      ],
      "name": "players",
      "outputs": [
        {
          "name": "",
          "type": "address"
        }
      ],
      "payable": false,
      "stateMutability": "nonpayable",
      "type": "function"
    },
    {
      "constant": true,
      "inputs": [
        {
          "name": "_queryId",
          "type": "bytes32"
        },
        {
          "name": "_result",
          "type": "string"
        },
        {
          "name": "_proof",
          "type": "bytes"
        }
      ],
      "name": "totalBet",
      "outputs": [
        {
          "name": "",
          "type": "uint256"
        }
      ],
      "payable": false,
      "stateMutability": "nonpayable",
      "type": "function"
    },
    {
      "constant": false,
      "inputs": [
        {
          "name": "_minimumBet",
          "type": "uint256"
        },
        {
          "name": "_maxAmountOfBets",
          "type": "uint256"
        }
      ],
      "name": "distributePrizes",
      "outputs": [],
      "payable": false,
      "stateMutability": "nonpayable",
      "type": "constructor"
    }
  ],
  "bytecode": "0x606060405267016345785d8a0000600655600a60095534156200002157600080fd5b604051604080620034bb83398101604052808051919060200180519150505b60058054600160a060020a03191633600160a060020a031617905560008211156200006b5760068290555b6000811180156200007d575060648111155b15620000895760098190555b620000c27f300000000000000000000000000000000000000000000000000000000000000064010000000062002b03620000cb82021704565b5b5050620007c2565b600054600160a060020a031615806200010657506000546200010490600160a060020a031664010000000062001ed9620002f982021704565b155b15620001285762000126600064010000000062001ee16200030182021704565b505b60008054600160a060020a0316906338cc483190604051602001526040518163ffffffff167c0100000000000000000000000000000000000000000000000000000000028152600401602060405180830381600087803b15156200018b57600080fd5b6102c65a03f115156200019d57600080fd5b5050506040518051600154600160a060020a0390811691161490506200025c5760008054600160a060020a0316906338cc483190604051602001526040518163ffffffff167c0100000000000000000000000000000000000000000000000000000000028152600401602060405180830381600087803b15156200022057600080fd5b6102c65a03f115156200023257600080fd5b505050604051805160018054600160a060020a031916600160a060020a0392909216919091179055505b600154600160a060020a031663688dcfd7826040517c010000000000000000000000000000000000000000000000000000000063ffffffff84160281527fff000000000000000000000000000000000000000000000000000000000000009091166004820152602401600060405180830381600087803b1515620002df57600080fd5b6102c65a03f11515620002f157600080fd5b5050505b5b50565b803b5b919050565b60008062000331731d3b2638a7cc9f2cb3d298a3da7a90b67e5506ed64010000000062001ed9620002f982021704565b1115620003b35760008054600160a060020a031916731d3b2638a7cc9f2cb3d298a3da7a90b67e5506ed179055620003aa60408051908101604052600b81527f6574685f6d61696e6e6574000000000000000000000000000000000000000000602082015264010000000062002604620006fe82021704565b506001620002fc565b6000620003e273c03a2615d5efaf5f49f60b7bb6583eaec212fdf164010000000062001ed9620002f982021704565b1115620004645760008054600160a060020a03191673c03a2615d5efaf5f49f60b7bb6583eaec212fdf1179055620003aa60408051908101604052600c81527f6574685f726f707374656e330000000000000000000000000000000000000000602082015264010000000062002604620006fe82021704565b506001620002fc565b60006200049373b7a07bcf2ba2f2703b24c0691b5278999c59ac7e64010000000062001ed9620002f982021704565b1115620005155760008054600160a060020a03191673b7a07bcf2ba2f2703b24c0691b5278999c59ac7e179055620003aa60408051908101604052600981527f6574685f6b6f76616e0000000000000000000000000000000000000000000000602082015264010000000062002604620006fe82021704565b506001620002fc565b60006200054473146500cfd35b22e4a392fe0adc06de1a1368ed4864010000000062001ed9620002f982021704565b1115620005c65760008054600160a060020a03191673146500cfd35b22e4a392fe0adc06de1a1368ed48179055620003aa60408051908101604052600b81527f6574685f72696e6b656279000000000000000000000000000000000000000000602082015264010000000062002604620006fe82021704565b506001620002fc565b6000620005f5736f485c8bf6fc43ea212e93bbf8ce046c7f1cb47564010000000062001ed9620002f982021704565b11156200062b575060008054600160a060020a031916736f485c8bf6fc43ea212e93bbf8ce046c7f1cb4751790556001620002fc565b60006200065a7320e12a1f859b3feae5fb2a0a32c18f5a65555bbf64010000000062001ed9620002f982021704565b111562000690575060008054600160a060020a0319167320e12a1f859b3feae5fb2a0a32c18f5a65555bbf1790556001620002fc565b6000620006bf7351efaf4c8b3c9afbd5ab9f4bbc82784ab6ef8faa64010000000062001ed9620002f982021704565b1115620006f5575060008054600160a060020a0319167351efaf4c8b3c9afbd5ab9f4bbc82784ab6ef8faa1790556001620002fc565b5060005b919050565b60028180516200071392916020019062000718565b505b50565b828054600181600116156101000203166002900490600052602060002090601f016020900481019282601f106200075b57805160ff19168380011785556200078b565b828001600101855582156200078b579182015b828111156200078b5782518255916020019190600101906200076e565b5b506200079a9291506200079e565b5090565b620007bf91905b808211156200079a5760008155600101620007a5565b5090565b90565b612ce980620007d26000396000f300606060405236156100a95763ffffffff60e060020a6000350416630a50e36181146100ae5780631900874b146100b857806327dc297e146100dd5780632ca8c6d31461013557806338bbfa501461015a5780634081d916146101f45780637365870b146102275780637ce52eb6146102345780639a6a68e914610249578063c38a8afd1461026e578063e08a96cd14610293578063f71d96cb146102b8578063fe5e1853146102ea575b600080fd5b6100b661030f565b005b34156100c357600080fd5b6100cb610346565b60405190815260200160405180910390f35b34156100e857600080fd5b6100b6600480359060446024803590810190830135806020601f8201819004810201604051908101604052818152929190602084018383808284375094965061034b95505050505050565b005b341561014057600080fd5b6100cb61037b565b60405190815260200160405180910390f35b341561016557600080fd5b6100b6600480359060446024803590810190830135806020601f8201819004810201604051908101604052818152929190602084018383808284378201915050505050509190803590602001908201803590602001908080601f01602080910402602001604051908101604052818152929190602084018383808284375094965061038195505050505050565b005b34156101ff57600080fd5b610213600160a060020a036004351661054c565b604051901515815260200160405180910390f35b6100b660043561057f565b005b341561023f57600080fd5b6100b6610650565b005b341561025457600080fd5b6100cb610753565b60405190815260200160405180910390f35b341561027957600080fd5b6100cb610759565b60405190815260200160405180910390f35b341561029e57600080fd5b6100cb61075f565b60405190815260200160405180910390f35b34156102c357600080fd5b6102ce600435610765565b604051600160a060020a03909116815260200160405180910390f35b34156102f557600080fd5b6100cb610797565b60405190815260200160405180910390f35b60008060008060095460085410151561033e57600793506000925062030d40915061033b83858461079d565b90505b5b5b50505050565b606481565b6103768282600060405180591061035f5750595b908082528060200260200182016040525b50610381565b5b5050565b60085481565b82828260008160008151811061039357fe5b016020015160f860020a900460f860020a02600160f860020a0319167f4c000000000000000000000000000000000000000000000000000000000000001415806104255750816001815181106103e557fe5b016020015160f860020a900460f860020a02600160f860020a0319167f500000000000000000000000000000000000000000000000000000000000000014155b8061046d57508160028151811061043857fe5b01602001517fff0000000000000000000000000000000000000000000000000000000000000060f860020a9182900482021614155b1561047757600080fd5b61048a828585610485610c4a565b610cf3565b905080151561049857600080fd5b6009546008541061053f576104ab611278565b600160a060020a031633600160a060020a03161415156104c757fe5b600a866040518082805190602001908083835b602083106104fa57805182525b601f1990920191602091820191016104da565b6001836020036101000a038019825116818451161790925250505091909101925060409150505190819003902081151561053057fe5b06600101600a5561053f610650565b5b5b5b5b50505050505050565b600160a060020a0381166000908152600d60205260408120548190111561057557506001610579565b5060005b5b919050565b6009546008541061058c57fe5b6105953361054c565b1561059c57fe5b600181101580156105ae5750600a8111155b15156105b657fe5b6006543410156105c257fe5b600160a060020a0333166000908152600d60209081526040808320849055838352600c90915290208054600181016105fa838261299a565b916000526020600020900160005b8154600160a060020a033381166101009390930a928302920219161790555060088054600101908190556007805434019055600954901061064b5761064b61030f565b5b5b50565b600080600060095460085410151561074c57600a546000908152600c602052604090205460075481151561068057fe5b049250600091505b600a546000908152600c602052604090205482101561071357600a546000908152600c602052604090208054839081106106be57fe5b906000526020600020900160005b9054600160a060020a036101009290920a90041683156108fc0284604051600060405180830381858888f19350505050151561070757600080fd5b5b600190910190610688565b5060015b600a8111610741576000818152600c60205260408120610737908261299a565b505b600101610717565b600060078190556008555b5b5b505050565b600a5481565b60065481565b60095481565b600b80548290811061077357fe5b906000526020600020900160005b915054906101000a9004600160a060020a031681565b60075481565b60006107a76129ee565b6107af6129ee565b6107b76129ee565b60006107c16129ee565b6107c96129ee565b6107d1612a00565b60006107db6129ee565b8b15806107e8575060208c115b156107f257600080fd5b600a8d029c5060016040518059106108075750595b908082528060200260200182016040525b5098508b60f860020a028960008151811061082f57fe5b906020010190600160f860020a031916908160001a90535060206040518059106108565750595b908082528060200260200182016040525b50975060206040518059106108795750595b908082528060200260200182016040525b50965061089561141a565b95506020885242411860014303401860208901526020875285602088015260206040518059106108c25750595b908082528060200260200182016040525b5094508c602086015260086040518059106108eb5750595b908082528060200260200182016040525b50935061090f85601860088760006115bc565b506080604051908101604052808981526020018a815260200188815260200186815250925061097260408051908101604052600681527f72616e646f6d00000000000000000000000000000000000000000000000000006020820152848d611614565b915060086040518059106109835750595b908082528060200260200182016040525b509050602084015160f860020a810460278301537e01000000000000000000000000000000000000000000000000000000000000810460268301537d0100000000000000000000000000000000000000000000000000000000008104602583015360e060020a810460248301537b01000000000000000000000000000000000000000000000000000000810460238301537a010000000000000000000000000000000000000000000000000000810460228301537901000000000000000000000000000000000000000000000000008104602183015378010000000000000000000000000000000000000000000000008104602083015350610c3682828560015b602002015160028760005b60200201516000604051602001526040518082805190602001908083835b60208310610ade57805182525b601f199092019160209182019101610abe565b6001836020036101000a03801982511681845116808217855250505050505090500191505060206040518083038160008661646e5a03f11515610b2057600080fd5b5050604051805190508760025b60200201516040518085805190602001908083835b60208310610b6257805182525b601f199092019160209182019101610b42565b6001836020036101000a038019825116818451161790925250505091909101905084805190602001908083835b60208310610baf57805182525b601f199092019160209182019101610b8f565b6001836020036101000a038019825116818451161790925250505091909101848152602001905082805190602001908083835b60208310610c0257805182525b601f199092019160209182019101610be2565b6001836020036101000a03801982511681845116179092525050509190910195506040945050505050518091039020611835565b8199505b5050505050505050509392505050565b610c526129ee565b60028054600181600116156101000203166002900480601f016020809104026020016040519081016040528092919081815260200182805460018160011615610100020316600290048015610ce85780601f10610cbd57610100808354040283529160200191610ce8565b820191906000526020600020905b815481529060010190602001808311610ccb57829003601f168201915b505050505090505b90565b600080610cfe6129ee565b610d066129ee565b610d0e6129ee565b610d166129ee565b600080610d216129ee565b8c604581518110610d2e57fe5b016020015160f860020a9081900481020460660197506020604051805910610d535750595b908082528060200260200182016040525b509650610d768d8960208a60006115bc565b5060028a8d6000604051602001526040518083805190602001908083835b60208310610db457805182525b601f199092019160209182019101610d94565b6001836020036101000a0380198251168184511617909252505050919091019283525050602090810191506040518083038160008661646e5a03f11515610dfa57600080fd5b505060405180519050604051908152602001604051908190039020876040518082805190602001908083835b60208310610e4657805182525b601f199092019160209182019101610e26565b6001836020036101000a038019825116818451161790925250505091909101925060409150505190819003902014610e815760009850611268565b8c604a890181518110610e9057fe5b016020015160f860020a900460f860020a0260f860020a9004600201604051805910610eb95750595b908082528060200260200182016040525b509550610edf8d8960490188518960006115bc565b50610f986002876000604051602001526040518082805190602001908083835b60208310610f1f57805182525b601f199092019160209182019101610eff565b6001836020036101000a03801982511681845116808217855250505050505090500191505060206040518083038160008661646e5a03f11515610f6157600080fd5b5050604051805190508c8f60288c0181518110610f7a57fe5b016020015160f860020a900460f860020a0260f860020a900461184b565b1515610fa75760009850611268565b6029604051805910610fb65750595b908082528060200260200182016040525b509450610fdc8d8960200160298860006115bc565b5060408051805910610feb5750595b908082528060200260200182016040525b5093508551886020016029010160410192506110208d6040850360408760006115bc565b506002846000604051602001526040518082805190602001908083835b6020831061105d57805182525b601f19909201916020918201910161103d565b6001836020036101000a03801982511681845116808217855250505050505090500191505060206040518083038160008661646e5a03f1151561109f57600080fd5b505060405180519050915084826040518083805190602001908083835b602083106110dc57805182525b601f1990920191602091820191016110bc565b6001836020036101000a0380198251168184511617909252505050919091019283525050602001905060405190819003902060008d81526003602052604090205414156111375760008c815260036020526040812055611140565b60009850611268565b604960405180591061114f5750595b908082528060200260200182016040525b5090506111728d8960498460006115bc565b506112046002826000604051602001526040518082805190602001908083835b602083106111b257805182525b601f199092019160209182019101611192565b6001836020036101000a03801982511681845116808217855250505050505090500191505060206040518083038160008661646e5a03f115156111f457600080fd5b50506040518051905087866118d2565b15156112135760009850611268565b60008281526004602052604090205460ff161515611253576112358d84611aea565b6000838152600460205260409020805460ff19169115159190911790555b60008281526004602052604090205460ff1698505b5050505050505050949350505050565b60008054600160a060020a031615806112a357506000546112a190600160a060020a0316611ed9565b155b156112b4576112b26000611ee1565b505b60008054600160a060020a0316906338cc483190604051602001526040518163ffffffff1660e060020a028152600401602060405180830381600087803b15156112fd57600080fd5b6102c65a03f1151561130e57600080fd5b5050506040518051600154600160a060020a0390811691161490506113b15760008054600160a060020a0316906338cc483190604051602001526040518163ffffffff1660e060020a028152600401602060405180830381600087803b151561137657600080fd5b6102c65a03f1151561138757600080fd5b505050604051805160018054600160a060020a031916600160a060020a0392909216919091179055505b600154600160a060020a031663c281d19e6000604051602001526040518163ffffffff1660e060020a028152600401602060405180830381600087803b15156113f957600080fd5b6102c65a03f1151561140a57600080fd5b50505060405180519150505b5b90565b60008054600160a060020a03161580611445575060005461144390600160a060020a0316611ed9565b155b15611456576114546000611ee1565b505b60008054600160a060020a0316906338cc483190604051602001526040518163ffffffff1660e060020a028152600401602060405180830381600087803b151561149f57600080fd5b6102c65a03f115156114b057600080fd5b5050506040518051600154600160a060020a0390811691161490506115535760008054600160a060020a0316906338cc483190604051602001526040518163ffffffff1660e060020a028152600401602060405180830381600087803b151561151857600080fd5b6102c65a03f1151561152957600080fd5b505050604051805160018054600160a060020a031916600160a060020a0392909216919091179055505b600154600160a060020a031663abaa5f3e6000604051602001526040518163ffffffff1660e060020a028152600401602060405180830381600087803b15156113f957600080fd5b6102c65a03f1151561140a57600080fd5b50505060405180519150505b5b90565b6115c46129ee565b83820160008082865110156115d857600080fd5b505060208087019084015b868860200101821015611604578189015186820152602091820191016115e3565b8593505b50505095945050505050565b600061161e6129ee565b600054600160a060020a03161580611648575060005461164690600160a060020a0316611ed9565b155b15611659576116576000611ee1565b505b60008054600160a060020a0316906338cc483190604051602001526040518163ffffffff1660e060020a028152600401602060405180830381600087803b15156116a257600080fd5b6102c65a03f115156116b357600080fd5b5050506040518051600154600160a060020a0390811691161490506117565760008054600160a060020a0316906338cc483190604051602001526040518163ffffffff1660e060020a028152600401602060405180830381600087803b151561171b57600080fd5b6102c65a03f1151561172c57600080fd5b505050604051805160018054600160a060020a031916600160a060020a0392909216919091179055505b60046040518059106117655750595b90808252806020026020018201604052801561179b57816020015b6117886129ee565b8152602001906001900390816117805790505b5090508360005b6020020151816000815181106117b457fe5b602090810290910101528360015b6020020151816001815181106117d457fe5b602090810290910101528360025b6020020151816002815181106117f457fe5b602090810290910101528360035b60200201518160038151811061181457fe5b60209081029091010152611829858285612220565b91505b5b509392505050565b60008281526003602052604090208190555b5050565b60006001818385511461185d57600080fd5b5060005b838110156118c55784818151811061187557fe5b016020015160f860020a900460f860020a02600160f860020a031916868260208110151561189f57fe5b1a60f860020a02600160f860020a0319161415156118bc57600091505b5b600101611861565b8192505b50509392505050565b60008060008060006118e26129ee565b60006118ec6129ee565b60206040518059106118fb5750595b908082528060200260200182016040525b50925060208a60038151811061191e57fe5b016020015160f860020a900460f860020a0260f860020a900403600401915061194c8a8360208660006115bc565b9250602060405180591061195d5750595b908082528060200260200182016040525b5090506022820191506119b28a60208c600186038151811061198c57fe5b016020015160f860020a900460f860020a0260f860020a900403840160208460006115bc565b905060208301519450602081015193506119cf8b601b87876125bf565b9097509550600160a060020a038616896040518082805190602001908083835b60208310611a0f57805182525b601f1990920191602091820191016119ef565b6001836020036101000a0380198251168184511617909252505050919091019250604091505051908190039020600160a060020a03161415611a545760019750611adb565b611a618b601c87876125bf565b9097509550600160a060020a038616896040518082805190602001908083835b60208310611aa157805182525b601f199092019160209182019101611a81565b6001836020036101000a0380198251168184511617909252505050919091019250604091505051908190039020600160a060020a03161497505b5b505050505050509392505050565b600080611af56129ee565b611afd6129ee565b611b056129ee565b611b0d6129ee565b611b156129ee565b611b1d6129ee565b611b256129ee565b8a8a60010181518110611b3457fe5b016020015160f860020a900460f860020a0260f860020a9004600201604051805910611b5d5750595b908082528060200260200182016040525b509650611b808b8b89518a60006115bc565b5060408051805910611b8f5750595b908082528060200260200182016040525b509550611bb38b600460408960006115bc565b506062604051805910611bc35750595b908082528060200260200182016040525b50945060f860020a85600081518110611be957fe5b906020010190600160f860020a031916908160001a905350611c138b60418c0360418860016115bc565b506040805190810160405280602081526020017ffd94fa71bc0ba10d39d464d0d8f465efeef0a2764e3887fcc9df41ded20f505c8152509350611c5c84600060208860426115bc565b50611cee6002866000604051602001526040518082805190602001908083835b60208310611c9c57805182525b601f199092019160209182019101611c7c565b6001836020036101000a03801982511681845116808217855250505050505090500191505060206040518083038160008661646e5a03f11515611cde57600080fd5b50506040518051905088886118d2565b9750871515611d005760009850611ecb565b606060405190810160405280604081526020017f7fb956469c5c9b89840d55b43537e66a98dd4811ea0a27224272c2e5622911e881526020017f537a2f8e86a46baec82864e98dd01e9ccc2f8bc5dfc9cbe5a91a290498dd96e481525092506042604051805910611d6e5750595b908082528060200260200182016040525b5091507ffe0000000000000000000000000000000000000000000000000000000000000082600081518110611db057fe5b906020010190600160f860020a031916908160001a905350611dd88b600360418560016115bc565b508a604581518110611de657fe5b016020015160f860020a900460f860020a0260f860020a9004600201604051805910611e0f5750595b908082528060200260200182016040525b509050611e338b604483518460006115bc565b50611ec56002836000604051602001526040518082805190602001908083835b60208310611e7357805182525b601f199092019160209182019101611e53565b6001836020036101000a03801982511681845116808217855250505050505090500191505060206040518083038160008661646e5a03f11515611eb557600080fd5b50506040518051905082856118d2565b97508798505b505050505050505092915050565b803b5b919050565b600080611f01731d3b2638a7cc9f2cb3d298a3da7a90b67e5506ed611ed9565b1115611f715760008054600160a060020a031916731d3b2638a7cc9f2cb3d298a3da7a90b67e5506ed179055611f6960408051908101604052600b81527f6574685f6d61696e6e65740000000000000000000000000000000000000000006020820152612604565b506001610579565b6000611f9073c03a2615d5efaf5f49f60b7bb6583eaec212fdf1611ed9565b11156120005760008054600160a060020a03191673c03a2615d5efaf5f49f60b7bb6583eaec212fdf1179055611f6960408051908101604052600c81527f6574685f726f707374656e3300000000000000000000000000000000000000006020820152612604565b506001610579565b600061201f73b7a07bcf2ba2f2703b24c0691b5278999c59ac7e611ed9565b111561208f5760008054600160a060020a03191673b7a07bcf2ba2f2703b24c0691b5278999c59ac7e179055611f6960408051908101604052600981527f6574685f6b6f76616e00000000000000000000000000000000000000000000006020820152612604565b506001610579565b60006120ae73146500cfd35b22e4a392fe0adc06de1a1368ed48611ed9565b111561211e5760008054600160a060020a03191673146500cfd35b22e4a392fe0adc06de1a1368ed48179055611f6960408051908101604052600b81527f6574685f72696e6b6562790000000000000000000000000000000000000000006020820152612604565b506001610579565b600061213d736f485c8bf6fc43ea212e93bbf8ce046c7f1cb475611ed9565b1115612171575060008054600160a060020a031916736f485c8bf6fc43ea212e93bbf8ce046c7f1cb4751790556001610579565b60006121907320e12a1f859b3feae5fb2a0a32c18f5a65555bbf611ed9565b11156121c4575060008054600160a060020a0319167320e12a1f859b3feae5fb2a0a32c18f5a65555bbf1790556001610579565b60006121e37351efaf4c8b3c9afbd5ab9f4bbc82784ab6ef8faa611ed9565b1115610575575060008054600160a060020a0319167351efaf4c8b3c9afbd5ab9f4bbc82784ab6ef8faa1790556001610579565b5060005b919050565b60008061222b6129ee565b600054600160a060020a03161580612255575060005461225390600160a060020a0316611ed9565b155b15612266576122646000611ee1565b505b60008054600160a060020a0316906338cc483190604051602001526040518163ffffffff1660e060020a028152600401602060405180830381600087803b15156122af57600080fd5b6102c65a03f115156122c057600080fd5b5050506040518051600154600160a060020a0390811691161490506123635760008054600160a060020a0316906338cc483190604051602001526040518163ffffffff1660e060020a028152600401602060405180830381600087803b151561232857600080fd5b6102c65a03f1151561233957600080fd5b505050604051805160018054600160a060020a031916600160a060020a0392909216919091179055505b600154600160a060020a0316632ef3accc87866000604051602001526040518363ffffffff1660e060020a0281526004018080602001838152602001828103825284818151815260200191508051906020019080838360005b838110156123d55780820151818401525b6020016123bc565b50505050905090810190601f1680156124025780820380516001836020036101000a031916815260200191505b509350505050602060405180830381600087803b151561242157600080fd5b6102c65a03f1151561243257600080fd5b5050506040518051925050670de0b6b3a76400003a85020182111561245a57600092506118c9565b6124638561261c565b600154909150600160a060020a031663c55c1cb683600089858983604051602001526040518663ffffffff1660e060020a028152600401808581526020018060200180602001848152602001838103835286818151815260200191508051906020019080838360005b838110156124e55780820151818401525b6020016124cc565b50505050905090810190601f1680156125125780820380516001836020036101000a031916815260200191505b50838103825285818151815260200191508051906020019080838360005b838110156125495780820151818401525b602001612530565b50505050905090810190601f1680156125765780820380516001836020036101000a031916815260200191505b5096505050505050506020604051808303818588803b151561259757600080fd5b6125ee5a03f115156125a857600080fd5b5050505060405180519350505b5b50509392505050565b60008060008060405188815287602082015286604082015285606082015260208160808360006001610bb8f1925080519150508181935093505b505094509492505050565b6002818051610376929160200190612a63565b505b50565b6126246129ee565b60008061262f6129ee565b600080600061263c6129ee565b60008060008b51995060009850896040518059106126575750595b90808252806020026020018201604052801561268d57816020015b61267a6129ee565b8152602001906001900390816126725790505b509750600096505b8987101561271a578b87815181106126a957fe5b906020019060200201518888815181106126bf57fe5b60209081029091010152601760018989815181106126d957fe5b9060200190602002015151038115156126ee57fe5b048888815181106126fb57fe5b906020019060200201515101600301890198505b600190960195612695565b600198909801976000955060808a019450886040518059106127395750595b908082528060200260200182016040525b5093505b6001869011156127a05760f860020a8502866001811061276a57fe5b1a60f860020a0284878151811061277d57fe5b906020010190600160f860020a031916908160001a90535060019095019461274e565b600096505b89871015612987577f5f000000000000000000000000000000000000000000000000000000000000008487815181106127da57fe5b906020010190600160f860020a031916908160001a905350600190950194600092505b87878151811061280957fe5b9060200190602002015151831015612930576017835b0615156128c65760188389898151811061283557fe5b9060200190602002015151031015612865578288888151811061285457fe5b906020019060200201515103612868565b60175b60400191508590505b808603600111156128c65760f860020a82028187036001811061289057fe5b1a60f860020a028487815181106128a357fe5b906020010190600160f860020a031916908160001a905350600190950194612871565b5b8787815181106128d357fe5b9060200190602002015183815181106128e857fe5b016020015160f860020a900460f860020a0284878151811061290657fe5b906020010190600160f860020a031916908160001a9053506001909501945b6001909201916127fd565b7fff0000000000000000000000000000000000000000000000000000000000000084878151811061295d57fe5b906020010190600160f860020a031916908160001a9053506001909501945b6001909601956127a5565b839a505b50505050505050505050919050565b81548183558181151161074c5760008381526020902061074c918101908301612ae2565b5b505050565b81548183558181151161074c5760008381526020902061074c918101908301612ae2565b5b505050565b60206040519081016040526000815290565b60806040519081016040526004815b612a176129ee565b815260200190600190039081612a0f5790505090565b60206040519081016040526000815290565b60206040519081016040526000815290565b60206040519081016040526000815290565b828054600181600116156101000203166002900490600052602060002090601f016020900481019282601f10612aa457805160ff1916838001178555612ad1565b82800160010185558215612ad1579182015b82811115612ad1578251825591602001919060010190612ab6565b5b50612ade929150612ae2565b5090565b610cf091905b80821115612ade5760008155600101612ae8565b5090565b90565b600054600160a060020a03161580612b2d5750600054612b2b90600160a060020a0316611ed9565b155b15612b3e57612b3c6000611ee1565b505b60008054600160a060020a0316906338cc483190604051602001526040518163ffffffff1660e060020a028152600401602060405180830381600087803b1515612b8757600080fd5b6102c65a03f11515612b9857600080fd5b5050506040518051600154600160a060020a039081169116149050612c3b5760008054600160a060020a0316906338cc483190604051602001526040518163ffffffff1660e060020a028152600401602060405180830381600087803b1515612c0057600080fd5b6102c65a03f11515612c1157600080fd5b505050604051805160018054600160a060020a031916600160a060020a0392909216919091179055505b600154600160a060020a031663688dcfd78260405160e060020a63ffffffff84160281527fff000000000000000000000000000000000000000000000000000000000000009091166004820152602401600060405180830381600087803b1515612ca457600080fd5b6102c65a03f1151561033e57600080fd5b5050505b5b505600a165627a7a7230582036df5429db48c719a323076e1556a7909d2ad28d68ba845cb8244e2487947da40029",
  "source": "pragma solidity ^0.4.11;\n\nimport \"/Users/Jonatan/CSC/ethereum-api/oraclizeAPI.sol\";\n\n/// @title Contract to bet Ether for a number and win randomly when the number of bets is met.\n/// @author Merunas Grincalaitis\ncontract Casino is usingOraclize {\n    address owner;\n\n    // The minimum bet a user has to make to participate in the game\n    uint public minimumBet = 100 finney; // Equal to 0.1 ether\n\n    // The total amount of Ether bet for this current game\n    uint public totalBet;\n\n    // The total number of bets the users have made\n    uint public numberOfBets;\n\n    // The maximum amount of bets can be made for each game\n    uint public maxAmountOfBets = 10;\n\n    // The max amount of bets that cannot be exceeded to avoid excessive gas consumption\n    // when distributing the prizes and restarting the game\n    uint public constant LIMIT_AMOUNT_BETS = 100;\n\n    // The number that won the last game\n    uint public numberWinner;\n\n    // Array of players\n    address[] public players;\n\n    // Each number has an array of players. Associate each number with a bunch of players\n    mapping(uint => address[]) numberBetPlayers;\n\n    // The number that each player has bet for\n    mapping(address => uint) playerBetsNumber;\n\n    // Modifier to only allow the execution of functions when the bets are completed\n    modifier onEndGame(){\n        if(numberOfBets >= maxAmountOfBets) _;\n    }\n\n    /// @notice Constructor that's used to configure the minimum bet per game and the max amount of bets\n    /// @param _minimumBet The minimum bet that each user has to make in order to participate in the game\n    /// @param _maxAmountOfBets The max amount of bets that are required for each game\n    function Casino(uint _minimumBet, uint _maxAmountOfBets){\n        owner = msg.sender;\n\n        if(_minimumBet > 0) minimumBet = _minimumBet;\n        if(_maxAmountOfBets > 0 && _maxAmountOfBets <= LIMIT_AMOUNT_BETS)\n            maxAmountOfBets = _maxAmountOfBets;\n\n        // Set the proof of oraclize in order to make secure random number generations\n        oraclize_setProof(proofType_Ledger);\n    }\n\n    /// @notice Check if a player exists in the current game\n    /// @param player The address of the player to check\n    /// @return bool Returns true is it exists or false if it doesn't\n    function checkPlayerExists(address player) returns(bool){\n        if(playerBetsNumber[player] > 0)\n            return true;\n        else\n            return false;\n    }\n\n    /// @notice To bet for a number by sending Ether\n    /// @param numberToBet The number that the player wants to bet for. Must be between 1 and 10 both inclusive\n    function bet(uint numberToBet) payable{\n\n        // Check that the max amount of bets hasn't been met yet\n        assert(numberOfBets < maxAmountOfBets);\n\n        // Check that the player doesn't exists\n        assert(checkPlayerExists(msg.sender) == false);\n\n        // Check that the number to bet is within the range\n        assert(numberToBet >= 1 && numberToBet <= 10);\n\n        // Check that the amount paid is bigger or equal the minimum bet\n        assert(msg.value >= minimumBet);\n\n        // Set the number bet for that player\n        playerBetsNumber[msg.sender] = numberToBet;\n\n        // The player msg.sender has bet for that number\n        numberBetPlayers[numberToBet].push(msg.sender);\n\n        numberOfBets += 1;\n        totalBet += msg.value;\n\n        if(numberOfBets >= maxAmountOfBets) generateNumberWinner();\n    }\n\n    /// @notice Generates a random number between 1 and 10 both inclusive.\n    /// Must be payable because oraclize needs gas to generate a random number.\n    /// Can only be executed when the game ends.\n    function generateNumberWinner() payable onEndGame {\n        uint numberRandomBytes = 7;\n        uint delay = 0;\n        uint callbackGas = 200000;\n\n        bytes32 queryId = oraclize_newRandomDSQuery(delay, numberRandomBytes, callbackGas);\n    }\n\n    /// @notice Callback function that gets called by oraclize when the random number is generated\n    /// @param _queryId The query id that was generated to proofVerify\n    /// @param _result String that contains the number generated\n    /// @param _proof A string with a proof code to verify the authenticity of the number generation\n    function __callback(\n        bytes32 _queryId,\n        string _result,\n        bytes _proof\n) oraclize_randomDS_proofVerify(_queryId, _result, _proof) onEndGame {\n\n        // Checks that the sender of this callback was in fact oraclize\n        assert(msg.sender == oraclize_cbAddress());\n\n        numberWinner = (uint(sha3(_result))%10+1);\n        distributePrizes();\n    }\n\n    /// @notice Sends the corresponding Ether to each winner then deletes all the\n    /// players for the next game and resets the `totalBet` and `numberOfBets`\n    function distributePrizes() onEndGame {\n        uint winnerEtherAmount = totalBet / numberBetPlayers[numberWinner].length; // How much each winner gets\n\n        // Loop through all the winners to send the corresponding prize for each one\n        for(uint i = 0; i < numberBetPlayers[numberWinner].length; i++){\n            numberBetPlayers[numberWinner][i].transfer(winnerEtherAmount);\n        }\n\n        // Delete all the players for each number\n        for(uint j = 1; j <= 10; j++){\n            numberBetPlayers[j].length = 0;\n        }\n\n        totalBet = 0;\n        numberOfBets = 0;\n    }\n}\n",
  "sourcePath": "/Users/jonatan/CSC/CrowdVote/contracts/Casino.sol",
  "schemaVersion": "1.0.0",
  "updatedAt": "2018-03-28T16:47:50.566Z"
}